:070AF000436C6F636B3A00D9
:10089400120AAD120A6B7BFF7A0A79F07D017F019F
:1008A400120A0DE51BFB7A00750C027D017F021212
:1008B4000A4E7B3A7D037F02120AE6E51CFB7A00AE
:1008C400750C027D047F02120A4E7B3A7D067F027C
:1008D400120AE6E51AFB7A00750C027D077F021204
:0408E4000A4E80BF79
:03000B000208E800
:0408E800C0E0C0D0DC
:1008EC00538A18438CFC0519E51970020518C3943A
:1008FC00E8E51894034027751800751900051AE5EA
:10090C001A943C4019751A00051CE51C943C400EC9
:0E091C00751C00051BE51B94184003751B009D
:05092A00D0D0D0E03246
:100A9800EF1FAC0670011E4C600A7D027CEFDCFE85
:040AA800DDFC80EC05
:010AAC002227
:060AC100C2A58F80D2A740
:080AC7007F027EEFDEFEDFFC82
:010ACF002204
:0A0ADC00C2A6120AC1C2A7020AC78F
:100A3000CFCDCFCECCCE12083F7C007D0A12083F2E
:040A4000ED2430FF72
:0A0A4400D2A6120AC1C2A7020AC717
:100A8200AE07BE0104ED148006BE0209ED243F4408
:060A920080FF120ADC22C5
:100AAD007F38120ADC7F0C120ADC7F06120ADC7F0B
:040ABD0001020ADC4C
:0A0AE600AC03120A82AF04020A44B6
:060A0D008B088A09890A2A
:100A1300120A82E4FDAB08AA09A90A8D8275830034
:0C0A2300120800FF6006120A440D80E972
:010A2F0022A4
:0C09DA007F0AEA24FFFDE434FFFC7E00ED
:0809E6008E0D8F0E8C0F8D1099
:1009EE007F017E00E4FBEBC39510E50F6480F87485
:0E09FE008098500AAC0DAD0E12082D0B80E84B
:010A0C0022C7
:040A4E008A0A8B0B7A
:100A5200120A82AA0CEAD39400400D1209DAAC0AF7
:080A6200AD0B120A301A80ED01
:010A6A002269
:10092F00120A82C3EA64809480400B7F2B120A4420
:10093F008A168B17800E7F2D120A44C3E49BF5177E
:10094F00E49AF516AA15EAD39400400D1209DAAC11
:09095F0016AD17120A301A80EDE2
:01096800226C
:040969008A1F8B2036
:10096D00120A82AA21EAD3940040297F101209DCD1
:10097D00AC1FAD20CFCDCFCECCCE12083FEF540F54
:10098D00FEC3940AEE5004243080022437FF120A6D
:04099D00441A80D1A7
:0109A1002233
:0409A2008A248B25F3
:1009A600120A82AA26EAD394004028EA24FFFDE42C
:1009B60034FFFC7F027E001209E6AC24AD25CFCDC4
:1009C600CFCECCCE12083FEF54012430FF120A449A
:0309D6001A80D2B2
:0109D90022FB
:100A6B005389F0438901758A18758CFCC28DD28C21
:070A7B00D2A9D2AFC2B922DB
:03000000020AD021
:0C0AD000787FE4F6D8FD758126020894BA
:10080000BB010CE58229F582E5833AF583E02250AD
:1008100006E92582F8E622BBFE06E92582F8E222F7
:0D082000E58229F582E5833AF583E4932211
:10082D00EF8DF0A4A8F0CF8CF0A428CE8DF0A42EDF
:02083D00FE2299
:10083F00BC000BBE0029EF8DF084FFADF022E4CC9D
:10084F00F875F008EF2FFFEE33FEEC33FCEE9DEC66
:10085F00984005FCEE9DFE0FD5F0E9E4CEFD22EDAC
:10086F00F8F5F0EE8420D21CFEADF075F008EF2FF6
:10087F00FFED33FD4007985006D5F0F222C398FDE7
:05088F000FD5F0EA2284
:00000001FF
