:10015E001201BAE4F5178517157F0A7E001201D138
:10016E000517E517C3946440ED751764E517D3942E
:10017E000040E08517157F0A7E001201D115178009
:01018E00EB85
:03000B0002018F60
:10018F00C0E0C0F0C0D0758A9C758CFF0516E516CF
:10019F0075F0648485F016E516C395155004D2A149
:0B01AF008002C2A1D0D0D0F0D0E0321E
:1000FD00E4F51820B1137F14FE1201D130B1FD7F4C
:10010D00147E001201D175180120B0147F147E00E9
:10011D001201D130B0FD7F147E001201D17518028D
:10012D0020B2147F147E001201D130B2FD7F147EF7
:10013D00001201D175180320B3147F147E00120133
:10014D00D130B3FD7F147E001201D1751804AF18A4
:01015D00227F
:1001D100EF1FAC0670011E4C600A7D027CEFDCFE55
:0401E100DDFC80ECD5
:0101E50022F7
:1001BA005389F0438901758A9C758CFFC28DD28C54
:0701CA00D2A9D2AFC2B92295
:0F01E6000D083F065B4F666D7D077F6F7976389A
:10009A00EF14B4080050549000AF75F003A4C58360
:1000AA0025F0C583730200C70200CB0200CF02000D
:1000BA00D30200D70200DF0200E70200EFD2A480D9
:1000CA000ED2A48012D2A48016D2A4801AC2A4D2BC
:1000DA00A3D2A28016C2A4D2A3C2A2800EC2A4C274
:1000EA00A3D2A28006C2A4C2A3C2A274082DF8E6B3
:0300FA00F580226C
:0300000002000EED
:0C000E00787FE4F6D8FD758118020055DB
:10001A0002015EE493A3F8E493A34003F68001F29D
:10002A0008DFF48029E493A3F85407240CC8C333E7
:10003A00C4540F4420C8834004F456800146F6DFB6
:10004A00E4800B01020408102040809001E6E47E5F
:10005A00019360BCA3FF543F30E509541FFEE493AB
:10006A00A360010ECF54C025E060A840B8E493A372
:10007A00FAE493A3F8E493A3C8C582C8CAC583CA9D
:10008A00F0A3C8C582C8CAC583CADFE9DEE780BE55
:0101F5000009
:00000001FF
