:0B02FF0041444A204E54432052470067
:100105001202C07BFF7A0279FF7D017F0112024155
:100115007F9C1200978E228F23750C03AB23AA2296
:100125007D017F0212028E7FDC1200978E228F23C3
:10013500750C03AB23AA227D057F0212028E7FACCC
:100145001200978E228F23750C03AB23AA227D09FB
:0E0155007F0212028E7FF47E011202AB80B296
:1002AB00EF1FAC0670011E4C600A7D027CEFDCFE7A
:0402BB00DDFC80ECFA
:0102BF00221C
:0602E400C2A58F80D2A725
:0802EA007F027EEFDEFEDFFC67
:0102F20022E9
:0A030A00C2A61202E4C2A70202EA32
:10027000CFCDCFCECCCE1200427C007D0A12004200
:04028000ED2430FF3A
:0A028400D2A61202E4C2A70202EAA9
:1002C0007F3812030A7F0C12030A7F0612030A7F8B
:0402D0000102030A1A
:1002D400EDBF0103148002243F4480FF12030A226D
:0A031400AC031202D4AF040202840D
:060241008B088A09890AFE
:10024700EDBF0103148002243F4480FF12030AE438
:10025700FDAB08AA09A90A8D82758300120003FF66
:0802670060061202840D80E91B
:01026F00226C
:0C020E007F0AEA24FFFDE434FFFC7E00C0
:08021A008E0D8F0E8C0F8D106C
:100222007F017E00E4FBEBC39510E50F6480F87458
:0E0232008098500AAC0DAD0E1200300B80E823
:01024000229B
:04028E008A0A8B0B42
:100292001202D4AA0CEAD39400400D12020EAC0A48
:0802A200AD0B1202701A80ED91
:0102AA002231
:100163001202D4C3EA64809480400B7F2B12028472
:100173008A168B17800E7F2D120284C3E49BF5171A
:10018300E49AF516AA15EAD39400400D12020EACB8
:0901930016AD171202701A80ED7E
:01019C002240
:04019D008A1A8B1B14
:1001A1001202D4AA1CEAD3940040297F1012021033
:1001B100AC1AAD1BCFCDCFCECCCE120042EF540F37
:1001C100FEC3940AEE5004243080022437FF120249
:0401D100841A80D13B
:0101D5002207
:0401D6008A1F8B20D1
:1001DA001202D4AA21EAD394004028EA24FFFDE4BB
:1001EA0034FFFC7F027E0012021AAC1FAD20CFCD75
:1001FA00CFCECCCE120042EF54012430FF1202843B
:03020A001A80D285
:01020D0022CE
:02009700AD07B3
:10009900E4F508F509C2B6C2B5FB74807E00A80371
:1000A900088006CEA2E713CE13D8F8FFEDF582EF4C
:1000B900558224FF92B4D2B6C2B60BBB08DCE4FB6E
:1000C900D2B6C2B630B714E47E80A803088005CE44
:1000D900C313CE13D8F94209EE42080BBB10E1D283
:1000E900B5ED30E306E508FF7E0022E508C4F854C3
:0B00F900F0C868FEE509C4540F48FF82
:0101040022D8
:030000000202F306
:0C02F300787FE4F6D8FD75812302010538
:10000300BB010CE58229F582E5833AF583E02250B2
:1000130006E92582F8E622BBFE06E92582F8E222FC
:0D002300E58229F582E5833AF583E4932216
:10003000EF8DF0A4A8F0CF8CF0A428CE8DF0A42EE4
:02004000FE229E
:10004200BC000BBE0029EF8DF084FFADF022E4CCA2
:10005200F875F008EF2FFFEE33FEEC33FCEE9DEC6B
:10006200984005FCEE9DFE0FD5F0E9E4CEFD22EDB1
:10007200F8F5F0EE8420D21CFEADF075F008EF2FFB
:10008200FFED33FD4007985006D5F0F222C398FDEC
:050092000FD5F0EA2289
:00000001FF
