:0F093F000D083F065B4F666D7D077F6F79763839
:10088C00EF14B4080050549008A175F003A4C5836C
:10089C0025F0C583730208B90208BD0208C102081D
:1008AC00C50208C90208D10208D90208E1D2A48005
:1008BC000ED2A48012D2A48016D2A4801AC2A4D2C2
:1008CC00A3D2A28016C2A4D2A3C2A2800EC2A4C27A
:1008DC00A3D2A28006C2A4C2A3C2A274082DF8E6B9
:0308EC00F5802272
:0B0920007D0C7C0012088C7F017E0023
:10092B00EF4E600F7D027CEFDCFEDDFCEF1F70F005
:03093B001E80ED2E
:01093E002296
:1008EF007D0B7C007F0112088C7E0012092B7D0A84
:1008FF007C007F0212088C1F7E0012092B7F0312CF
:10090F0009207F04120920E4FDFC7F0512092480D1
:01091F00CF08
:03000000020800F3
:0C080000787FE4F6D8FD758114020847EB
:10080C000208EFE493A3F8E493A34003F68001F20B
:10081C0008DFF48029E493A3F85407240CC8C333ED
:10082C00C4540F4420C8834004F456800146F6DFBC
:10083C00E4800B010204081020408090093FE47E04
:10084C00019360BCA3FF543F30E509541FFEE493B1
:10085C00A360010ECF54C025E060A840B8E493A378
:10086C00FAE493A3F8E493A3C8C582C8CAC583CAA3
:10087C00F0A3C8C582C8CAC583CADFE9DEE780BE5B
:01094E0000A8
:00000001FF
