:0308F800010800F4
:0408E0007F147E0003
:1008E400EF4E600F7D027CEFDCFEDDFCEF1F70F04D
:0308F4001E80ED76
:0108F70022DE
:10088C0075A0FE20B1251208E030B1FD1208E0057C
:10089C0008E508C394084003E4F508AF087401A800
:1008AC0007088002C333D8FCF4F5A020B0D5120899
:1008BC00E030B0FD1208E0E508700575080780020D
:1008CC001508AF087401A807088002C333D8FCF4DC
:0408DC00F5A080AF54
:03000000020800F3
:0C080000787FE4F6D8FD758108020847F7
:10080C0002088CE493A3F8E493A34003F68001F26E
:10081C0008DFF48029E493A3F85407240CC8C333ED
:10082C00C4540F4420C8834004F456800146F6DFBC
:10083C00E4800B01020408102040809008F8E47E4C
:10084C00019360BCA3FF543F30E509541FFEE493B1
:10085C00A360010ECF54C025E060A840B8E493A378
:10086C00FAE493A3F8E493A3C8C582C8CAC583CAA3
:10087C00F0A3C8C582C8CAC583CADFE9DEE780BE5B
:0108FB0000FC
:00000001FF
