:0F03DD00414444522020434D4420204E554D00B2
:1001E6001203A97BFF7A0379DD7D017F0112032AC1
:1001F60012045A1203FBEF7006120408EF60F412A1
:1002060004608F281204638F27E528FB7A0075188F
:10021600027D027F02120286E527FB7A007518022C
:100226007D087F02120286E527B415021526E5270A
:10023600B409020526E526FB7A007518037D0C7FB6
:060246000212037780ADF7
:10039400EF1FAC0670011E4C600A7D027CEFDCFE90
:0403A400DDFC80EC10
:0103A8002232
:0603EC00C2A58F80D2A71C
:0803F2007F027EEFDEFEDFFC5E
:0103FA0022E0
:0A043700C2A61203ECC2A70203F2F2
:10035900CFCDCFCECCCE1201917C007D0A12019176
:04036900ED2430FF50
:0A036D00D2A61203ECC2A70203F2AD
:1003A9007F381204377F0C1204377F061204377F17
:0403B9000102043702
:1003BD00EDBF0103148002243F4480FF1204372255
:0A044100AC031203BDAF0402036D0B
:06032A008B148A158916F0
:10033000EDBF0103148002243F4480FF120437E420
:10034000FDAB14AA15A9168D82758300120152FF08
:08035000600612036D0D80E947
:010358002282
:0C02F7007F0AEA24FFFDE434FFFC7E00D7
:080303008E198F1A8C1B8D1C52
:10030B007F017E00E4FBEBC3951CE51B6480F87456
:0E031B008098500AAC19AD1A12017F0B80E8D1
:0103290022B1
:040377008A168B1740
:10037B001203BDAA18EAD39400400D1202F7AC1673
:08038B00AD171203591A80EDB1
:010393002247
:10024C001203BDC3EA64809480400B7F2B12036DB4
:10025C008A228B23800E7F2D12036DC3E49BF52322
:10026C00E49AF522AA21EAD39400400D1202F7ACCD
:09027C0022AD231203591A80ED92
:010285002256
:040286008A168B1732
:10028A001203BDAA18EAD3940040297F101202F97A
:10029A00AC16AD17CFCDCFCECCCE120191EF540F05
:1002AA00FEC3940AEE5004243080022437FF12035E
:0402BA006D1A80D168
:0102BE00221D
:0402BF008A2B8B2CCF
:1002C3001203BDAA2DEAD394004028EA24FFFDE4DB
:1002D30034FFFC7F027E00120303AC2BAD2CCFCD89
:1002E300CFCECCCE120191EF54012430FF12036D17
:0302F3001A80D29C
:0102F60022E5
:0B042100D288C289D2A8D2AFD2B82284
:1003CD005389F0438901E4F58AF58CC28DC28C22E4
:0B042C00AD07AC068C8CAF058F8A2258
:09044B00AF8CEFFEAD8AEDFF223B
:06045400EF24FF928C2250
:06045A001203CD02042193
:0D03FB00E50F6006E4F50F7F01227F002270
:0D040800E50E6006E4F50E7F01227F002264
:03046000AF0C22BC
:03046300AF0B22BA
:03000300020006F2
:10000600C0E0C0F0C083C082C0D075D000C000C0C0
:1000160001C002C003C004C005C006C007E50870E1
:100026000CFFFE12042C7F011204548049E508647B
:1000360001704912044B8E098F0AE4FFFE12042C4C
:10004600D3E50A94A6E509942E4010E50A948EE5B8
:100056000994325006750802020137D3E50A948CDA
:10006600E50994264010E50A9474E509942A500699
:10007600750E0102012F750801020137E5086402B9
:10008600600302013712044B8E098F0AE4FFFE1249
:10009600042CD3E50A9414E5099402402CE50A944D
:1000A600FCE50994055022E50D131313541F241083
:1000B600F8C000E6FFE50D5407FE7401A8060880A7
:1000C60002C333D8FCF45F8034D3E50A9426E509ED
:1000D60094064030E50A940EE509940A5026E50D8B
:1000E600131313541F2410F8C000E6FFE50D540740
:1000F600FE7401A806088002C333D8FC4FD000F670
:10010600050D8006750D00750801E50DC3942040A8
:1001160020750D00E511F4B5100FE513F4B51209BD
:1001260085100C85120B750F01E4FF120454750837
:1001360000D007D006D005D004D003D002D001D01D
:0C01460000D0D0D082D083D0F0D0E032C6
:03000000020415E2
:0C041500787FE4F6D8FD75812D0201E629
:10015200BB010CE58229F582E5833AF583E0225062
:1001620006E92582F8E622BBFE06E92582F8E222AC
:0D017200E58229F582E5833AF583E49322C6
:10017F00EF8DF0A4A8F0CF8CF0A428CE8DF0A42E94
:02018F00FE224E
:10019100BC000BBE0029EF8DF084FFADF022E4CC52
:1001A100F875F008EF2FFFEE33FEEC33FCEE9DEC1B
:1001B100984005FCEE9DFE0FD5F0E9E4CEFD22ED61
:1001C100F8F5F0EE8420D21CFEADF075F008EF2FAB
:1001D100FFED33FD4007985006D5F0F222C398FD9C
:0501E1000FD5F0EA2239
:00000001FF
